{
  "contractName": "Companies",
  "abi": [
    {
      "constant": false,
      "inputs": [
        {
          "name": "compid",
          "type": "uint256"
        },
        {
          "name": "branchid",
          "type": "uint256"
        },
        {
          "name": "recruiter",
          "type": "address"
        }
      ],
      "name": "remove_recruiter",
      "outputs": [
        {
          "name": "",
          "type": "address[]"
        }
      ],
      "payable": false,
      "stateMutability": "nonpayable",
      "type": "function"
    },
    {
      "constant": false,
      "inputs": [
        {
          "name": "compid",
          "type": "uint256"
        },
        {
          "name": "branchid",
          "type": "uint256"
        },
        {
          "name": "empname",
          "type": "bytes32"
        },
        {
          "name": "empaddress",
          "type": "address"
        },
        {
          "name": "emppos",
          "type": "bytes32"
        },
        {
          "name": "empage",
          "type": "uint256"
        }
      ],
      "name": "add_employee",
      "outputs": [],
      "payable": false,
      "stateMutability": "nonpayable",
      "type": "function"
    },
    {
      "constant": false,
      "inputs": [
        {
          "name": "compid",
          "type": "uint256"
        },
        {
          "name": "branchid",
          "type": "uint256"
        },
        {
          "name": "recruiter",
          "type": "address"
        }
      ],
      "name": "get_employee_add",
      "outputs": [
        {
          "name": "",
          "type": "address[]"
        }
      ],
      "payable": false,
      "stateMutability": "nonpayable",
      "type": "function"
    },
    {
      "constant": false,
      "inputs": [
        {
          "name": "compid",
          "type": "uint256"
        },
        {
          "name": "branchid",
          "type": "uint256"
        },
        {
          "name": "recruiter",
          "type": "address"
        }
      ],
      "name": "add_recruiter",
      "outputs": [],
      "payable": false,
      "stateMutability": "nonpayable",
      "type": "function"
    },
    {
      "constant": false,
      "inputs": [
        {
          "name": "id",
          "type": "uint256"
        },
        {
          "name": "empno",
          "type": "uint256"
        },
        {
          "name": "empid",
          "type": "address"
        }
      ],
      "name": "change_empno",
      "outputs": [],
      "payable": false,
      "stateMutability": "nonpayable",
      "type": "function"
    },
    {
      "constant": false,
      "inputs": [
        {
          "name": "compid",
          "type": "uint256"
        },
        {
          "name": "branchid",
          "type": "uint256"
        },
        {
          "name": "empid",
          "type": "address"
        }
      ],
      "name": "remove_employee",
      "outputs": [],
      "payable": false,
      "stateMutability": "nonpayable",
      "type": "function"
    },
    {
      "constant": false,
      "inputs": [
        {
          "name": "compid",
          "type": "uint256"
        },
        {
          "name": "manager",
          "type": "address"
        }
      ],
      "name": "add_b_manager",
      "outputs": [
        {
          "name": "",
          "type": "bool"
        }
      ],
      "payable": false,
      "stateMutability": "nonpayable",
      "type": "function"
    },
    {
      "constant": false,
      "inputs": [
        {
          "name": "sender",
          "type": "address"
        },
        {
          "name": "validater",
          "type": "address[]"
        }
      ],
      "name": "isAvailable",
      "outputs": [
        {
          "name": "",
          "type": "bool"
        }
      ],
      "payable": false,
      "stateMutability": "nonpayable",
      "type": "function"
    },
    {
      "constant": false,
      "inputs": [
        {
          "name": "validater",
          "type": "address"
        }
      ],
      "name": "add_validaters",
      "outputs": [
        {
          "name": "",
          "type": "uint256"
        }
      ],
      "payable": false,
      "stateMutability": "nonpayable",
      "type": "function"
    },
    {
      "constant": false,
      "inputs": [
        {
          "name": "id",
          "type": "uint256"
        },
        {
          "name": "companyname",
          "type": "bytes32"
        },
        {
          "name": "Founder",
          "type": "bytes32"
        },
        {
          "name": "empno",
          "type": "uint256"
        }
      ],
      "name": "get_active_companies",
      "outputs": [
        {
          "name": "",
          "type": "uint256"
        }
      ],
      "payable": false,
      "stateMutability": "nonpayable",
      "type": "function"
    },
    {
      "constant": false,
      "inputs": [
        {
          "name": "id",
          "type": "uint256"
        },
        {
          "name": "companyname",
          "type": "bytes32"
        },
        {
          "name": "Founder",
          "type": "bytes32"
        },
        {
          "name": "empno",
          "type": "uint256"
        }
      ],
      "name": "addCompany",
      "outputs": [
        {
          "name": "",
          "type": "address[]"
        }
      ],
      "payable": false,
      "stateMutability": "nonpayable",
      "type": "function"
    },
    {
      "constant": false,
      "inputs": [
        {
          "name": "compid",
          "type": "uint256"
        },
        {
          "name": "manager",
          "type": "address"
        }
      ],
      "name": "remove_manager",
      "outputs": [
        {
          "name": "",
          "type": "address[]"
        }
      ],
      "payable": false,
      "stateMutability": "nonpayable",
      "type": "function"
    },
    {
      "constant": false,
      "inputs": [
        {
          "name": "compid",
          "type": "uint256"
        },
        {
          "name": "branchid",
          "type": "uint256"
        },
        {
          "name": "branchname",
          "type": "bytes32"
        },
        {
          "name": "numemps",
          "type": "uint256"
        }
      ],
      "name": "get_active_employees",
      "outputs": [
        {
          "name": "",
          "type": "uint256"
        }
      ],
      "payable": false,
      "stateMutability": "nonpayable",
      "type": "function"
    },
    {
      "constant": false,
      "inputs": [
        {
          "name": "compid",
          "type": "uint256"
        },
        {
          "name": "branch_id",
          "type": "uint256"
        },
        {
          "name": "branchname",
          "type": "bytes32"
        },
        {
          "name": "numemps",
          "type": "uint256"
        }
      ],
      "name": "add_branch",
      "outputs": [
        {
          "name": "",
          "type": "uint256"
        }
      ],
      "payable": false,
      "stateMutability": "nonpayable",
      "type": "function"
    },
    {
      "constant": false,
      "inputs": [
        {
          "name": "compid",
          "type": "uint256"
        }
      ],
      "name": "get_active_b_managers",
      "outputs": [
        {
          "name": "",
          "type": "uint256"
        }
      ],
      "payable": false,
      "stateMutability": "nonpayable",
      "type": "function"
    },
    {
      "constant": false,
      "inputs": [
        {
          "name": "compid",
          "type": "uint256"
        }
      ],
      "name": "remove_company",
      "outputs": [
        {
          "name": "",
          "type": "address[]"
        }
      ],
      "payable": false,
      "stateMutability": "nonpayable",
      "type": "function"
    },
    {
      "constant": false,
      "inputs": [
        {
          "name": "validater",
          "type": "address"
        },
        {
          "name": "branchid",
          "type": "uint256"
        }
      ],
      "name": "remove_validater",
      "outputs": [
        {
          "name": "",
          "type": "address[]"
        }
      ],
      "payable": false,
      "stateMutability": "nonpayable",
      "type": "function"
    },
    {
      "constant": false,
      "inputs": [
        {
          "name": "compid",
          "type": "uint256"
        },
        {
          "name": "branchid",
          "type": "uint256"
        }
      ],
      "name": "remove_branch",
      "outputs": [],
      "payable": false,
      "stateMutability": "nonpayable",
      "type": "function"
    }
  ],
  "bytecode": "0x6060604052341561000f57600080fd5b6121728061001e6000396000f3006060604052600436106100fc576000357c0100000000000000000000000000000000000000000000000000000000900463ffffffff168063039d7491146101015780630ea96a4f146101a1578063131c827b1461020f5780631e978257146102905780633a3fc432146102db5780634b6268a9146103075780635205c7b8146103525780636618f9b61461039457806376465ab3146104255780637c2e40951461045e57806391ba51b314610487578063965b3b26146104cd57806398b7696e14610564578063a65e132a146105a4578063bed42b14146105e6578063d6782b7c1461061d578063e659cf1a14610640578063f14048e3146106ce575b600080fd5b341561010c57600080fd5b61014a600480803590602001909190803590602001909190803573ffffffffffffffffffffffffffffffffffffffff169060200190919050506106fa565b6040518080602001828103825283818151815260200191508051906020019060200280838360005b8381101561018d578082015181840152602081019050610172565b505050509050019250505060405180910390f35b34156101ac57600080fd5b61020d60048080359060200190919080359060200190919080356000191690602001909190803573ffffffffffffffffffffffffffffffffffffffff1690602001909190803560001916906020019091908035906020019091905050610a6e565b005b341561021a57600080fd5b6102396004808035906020019091908035906020019091905050610e1e565b6040518080602001828103825283818151815260200191508051906020019060200280838360005b8381101561027c578082015181840152602081019050610261565b505050509050019250505060405180910390f35b341561029b57600080fd5b6102d9600480803590602001909190803590602001909190803573ffffffffffffffffffffffffffffffffffffffff16906020019091905050610edd565b005b34156102e657600080fd5b6103056004808035906020019091908035906020019091905050610f6d565b005b341561031257600080fd5b610350600480803590602001909190803590602001909190803573ffffffffffffffffffffffffffffffffffffffff16906020019091905050610f8c565b005b341561035d57600080fd5b610392600480803590602001909190803573ffffffffffffffffffffffffffffffffffffffff16906020019091905050611324565b005b341561039f57600080fd5b61040b600480803573ffffffffffffffffffffffffffffffffffffffff169060200190919080359060200190820180359060200190808060200260200160405190810160405280939291908181526020018383602002808284378201915050505050509190505061139f565b604051808215151515815260200191505060405180910390f35b341561043057600080fd5b61045c600480803573ffffffffffffffffffffffffffffffffffffffff1690602001909190505061141d565b005b341561046957600080fd5b610471611483565b6040518082815260200191505060405180910390f35b341561049257600080fd5b6104cb60048080359060200190919080356000191690602001909190803560001916906020019091908035906020019091905050611490565b005b34156104d857600080fd5b61050d600480803590602001909190803573ffffffffffffffffffffffffffffffffffffffff16906020019091905050611533565b6040518080602001828103825283818151815260200191508051906020019060200280838360005b83811015610550578082015181840152602081019050610535565b505050509050019250505060405180910390f35b341561056f57600080fd5b61058e6004808035906020019091908035906020019091905050611806565b6040518082815260200191505060405180910390f35b34156105af57600080fd5b6105e460048080359060200190919080359060200190919080356000191690602001909190803590602001909190505061183e565b005b34156105f157600080fd5b61060760048080359060200190919050506119e5565b6040518082815260200191505060405180910390f35b341561062857600080fd5b61063e6004808035906020019091905050611a08565b005b341561064b57600080fd5b610677600480803573ffffffffffffffffffffffffffffffffffffffff16906020019091905050611bad565b6040518080602001828103825283818151815260200191508051906020019060200280838360005b838110156106ba57808201518184015260208101905061069f565b505050509050019250505060405180910390f35b34156106d957600080fd5b6106f86004808035906020019091908035906020019091905050611de0565b005b61070261205d565b600080600091505b600160008781526020019081526020016000206007016000868152602001908152602001600020600401805490508210156109b4578373ffffffffffffffffffffffffffffffffffffffff166001600088815260200190815260200160002060070160008781526020019081526020016000206004018381548110151561078d57fe5b906000526020600020900160009054906101000a900473ffffffffffffffffffffffffffffffffffffffff1673ffffffffffffffffffffffffffffffffffffffff1614156109a7576001600087815260200190815260200160002060070160008681526020019081526020016000206004018281548110151561080c57fe5b906000526020600020900160006101000a81549073ffffffffffffffffffffffffffffffffffffffff02191690558190505b60018060008881526020019081526020016000206007016000878152602001908152602001600020600401805490500381101561096857600160008781526020019081526020016000206007016000868152602001908152602001600020600401600182018154811015156108af57fe5b906000526020600020900160009054906101000a900473ffffffffffffffffffffffffffffffffffffffff166001600088815260200190815260200160002060070160008781526020019081526020016000206004018281548110151561091257fe5b906000526020600020900160006101000a81548173ffffffffffffffffffffffffffffffffffffffff021916908373ffffffffffffffffffffffffffffffffffffffff160217905550808060010191505061083e565b6001600087815260200190815260200160002060070160008681526020019081526020016000206004018054809190600190036109a59190612071565b505b818060010192505061070a565b600160008781526020019081526020016000206007016000868152602001908152602001600020600401805480602002602001604051908101604052809291908181526020018280548015610a5e57602002820191906000526020600020905b8160009054906101000a900473ffffffffffffffffffffffffffffffffffffffff1673ffffffffffffffffffffffffffffffffffffffff1681526020019060010190808311610a14575b5050505050925050509392505050565b610b2633600160008981526020019081526020016000206007016000888152602001908152602001600020600401805480602002602001604051908101604052809291908181526020018280548015610b1c57602002820191906000526020600020905b8160009054906101000a900473ffffffffffffffffffffffffffffffffffffffff1673ffffffffffffffffffffffffffffffffffffffff1681526020019060010190808311610ad2575b505050505061139f565b1515610b3157600080fd5b8360016000888152602001908152602001600020600701600087815260200190815260200160002060050160008573ffffffffffffffffffffffffffffffffffffffff1673ffffffffffffffffffffffffffffffffffffffff16815260200190815260200160002060000181600019169055508060016000888152602001908152602001600020600701600087815260200190815260200160002060050160008573ffffffffffffffffffffffffffffffffffffffff1673ffffffffffffffffffffffffffffffffffffffff168152602001908152602001600020600201819055508260016000888152602001908152602001600020600701600087815260200190815260200160002060050160008573ffffffffffffffffffffffffffffffffffffffff1673ffffffffffffffffffffffffffffffffffffffff16815260200190815260200160002060030160006101000a81548173ffffffffffffffffffffffffffffffffffffffff021916908373ffffffffffffffffffffffffffffffffffffffff1602179055508160016000888152602001908152602001600020600701600087815260200190815260200160002060050160008573ffffffffffffffffffffffffffffffffffffffff1673ffffffffffffffffffffffffffffffffffffffff168152602001908152602001600020600401816000191690555060018060008881526020019081526020016000206003016000828254019250508190555060018060008881526020019081526020016000206007016000878152602001908152602001600020600201600082825401925050819055506001600087815260200190815260200160002060070160008681526020019081526020016000206006018054806001018281610dc7919061209d565b9160005260206000209001600085909190916101000a81548173ffffffffffffffffffffffffffffffffffffffff021916908373ffffffffffffffffffffffffffffffffffffffff16021790555050505050505050565b610e2661205d565b600160008481526020019081526020016000206007016000838152602001908152602001600020600601805480602002602001604051908101604052809291908181526020018280548015610ed057602002820191906000526020600020905b8160009054906101000a900473ffffffffffffffffffffffffffffffffffffffff1673ffffffffffffffffffffffffffffffffffffffff1681526020019060010190808311610e86575b5050505050905092915050565b6001600084815260200190815260200160002060070160008381526020019081526020016000206004018054806001018281610f19919061209d565b9160005260206000209001600083909190916101000a81548173ffffffffffffffffffffffffffffffffffffffff021916908373ffffffffffffffffffffffffffffffffffffffff16021790555050505050565b8060016000848152602001908152602001600020600301819055505050565b600080600060016000878152602001908152602001600020600701600086815260200190815260200160002060050160008573ffffffffffffffffffffffffffffffffffffffff1673ffffffffffffffffffffffffffffffffffffffff16815260200190815260200160002060050160006101000a81548160ff0219169083151502179055506001806000878152602001908152602001600020600301600082825403925050819055506001806000878152602001908152602001600020600701600086815260200190815260200160002060020160008282540392505081905550600091505b6001600086815260200190815260200160002060070160008581526020019081526020016000206006018054905082101561131d578273ffffffffffffffffffffffffffffffffffffffff16600160008781526020019081526020016000206007016000868152602001908152602001600020600601838154811015156110f657fe5b906000526020600020900160009054906101000a900473ffffffffffffffffffffffffffffffffffffffff1673ffffffffffffffffffffffffffffffffffffffff161415611310576001600086815260200190815260200160002060070160008581526020019081526020016000206006018281548110151561117557fe5b906000526020600020900160006101000a81549073ffffffffffffffffffffffffffffffffffffffff02191690558190505b6001806000878152602001908152602001600020600701600086815260200190815260200160002060060180549050038110156112d1576001600086815260200190815260200160002060070160008581526020019081526020016000206006016001820181548110151561121857fe5b906000526020600020900160009054906101000a900473ffffffffffffffffffffffffffffffffffffffff166001600087815260200190815260200160002060070160008681526020019081526020016000206006018281548110151561127b57fe5b906000526020600020900160006101000a81548173ffffffffffffffffffffffffffffffffffffffff021916908373ffffffffffffffffffffffffffffffffffffffff16021790555080806001019150506111a7565b60016000868152602001908152602001600020600701600085815260200190815260200160002060060180548091906001900361130e9190612071565b505b8180600101925050611073565b5050505050565b60016000838152602001908152602001600020600601805480600101828161134c919061209d565b9160005260206000209001600083909190916101000a81548173ffffffffffffffffffffffffffffffffffffffff021916908373ffffffffffffffffffffffffffffffffffffffff160217905550505050565b600080600090505b8251811015611411578373ffffffffffffffffffffffffffffffffffffffff1683828151811015156113d557fe5b9060200190602002015173ffffffffffffffffffffffffffffffffffffffff1614156114045760019150611416565b80806001019150506113a7565b600091505b5092915050565b60008054806001018281611431919061209d565b9160005260206000209001600083909190916101000a81548173ffffffffffffffffffffffffffffffffffffffff021916908373ffffffffffffffffffffffffffffffffffffffff1602179055505050565b6000600280549050905090565b83600160008681526020019081526020016000206000018190555082600160008681526020019081526020016000206001018160001916905550816001600086815260200190815260200160002060020181600019169055508060016000868152602001908152602001600020600301819055506002805480600101828161151891906120c9565b91600052602060002090016000869091909150555050505050565b61153b61205d565b600080600091505b6001600086815260200190815260200160002060060180549050821015611761578373ffffffffffffffffffffffffffffffffffffffff16600160008781526020019081526020016000206006018381548110151561159e57fe5b906000526020600020900160009054906101000a900473ffffffffffffffffffffffffffffffffffffffff1673ffffffffffffffffffffffffffffffffffffffff16141561175457600160008681526020019081526020016000206006018281548110151561160957fe5b906000526020600020900160006101000a81549073ffffffffffffffffffffffffffffffffffffffff02191690558190505b6001806000878152602001908152602001600020600601805490500381101561172957600160008681526020019081526020016000206006016001820181548110151561168457fe5b906000526020600020900160009054906101000a900473ffffffffffffffffffffffffffffffffffffffff1660016000878152602001908152602001600020600601828154811015156116d357fe5b906000526020600020900160006101000a81548173ffffffffffffffffffffffffffffffffffffffff021916908373ffffffffffffffffffffffffffffffffffffffff160217905550808060010191505061163b565b600160008681526020019081526020016000206006018054809190600190036117529190612071565b505b8180600101925050611543565b600160008681526020019081526020016000206006018054806020026020016040519081016040528092919081815260200182805480156117f757602002820191906000526020600020905b8160009054906101000a900473ffffffffffffffffffffffffffffffffffffffff1673ffffffffffffffffffffffffffffffffffffffff16815260200190600101908083116117ad575b50505050509250505092915050565b600060016000848152602001908152602001600020600701600083815260200190815260200160002060060180549050905092915050565b6118e233600160008781526020019081526020016000206006018054806020026020016040519081016040528092919081815260200182805480156118d857602002820191906000526020600020905b8160009054906101000a900473ffffffffffffffffffffffffffffffffffffffff1673ffffffffffffffffffffffffffffffffffffffff168152602001906001019080831161188e575b505050505061139f565b15156118ed57600080fd5b826001600086815260200190815260200160002060070160008581526020019081526020016000206000018190555081600160008681526020019081526020016000206007016000858152602001908152602001600020600101816000191690555080600160008681526020019081526020016000206007016000858152602001908152602001600020600201819055506001806000868152602001908152602001600020600401600082825401925050819055506001600085815260200190815260200160002060080180548060010182816119ca91906120c9565b91600052602060002090016000859091909150555050505050565b600060016000838152602001908152602001600020600801805490509050919050565b600080611a9b336000805480602002602001604051908101604052809291908181526020018280548015611a9157602002820191906000526020600020905b8160009054906101000a900473ffffffffffffffffffffffffffffffffffffffff1673ffffffffffffffffffffffffffffffffffffffff1681526020019060010190808311611a47575b505050505061139f565b1515611aa657600080fd5b60006001600085815260200190815260200160002060050160006101000a81548160ff021916908315150217905550600091505b600280549050821015611ba85782600283815481101515611af757fe5b9060005260206000209001541415611b9b57600282815481101515611b1857fe5b9060005260206000209001600090558190505b600160028054905003811015611b8457600260018201815481101515611b4d57fe5b906000526020600020900154600282815481101515611b6857fe5b9060005260206000209001819055508080600101915050611b2b565b6002805480919060019003611b9991906120f5565b505b8180600101925050611ada565b505050565b611bb561205d565b600080600091505b600080549050821015611d50578373ffffffffffffffffffffffffffffffffffffffff16600083815481101515611bf057fe5b906000526020600020900160009054906101000a900473ffffffffffffffffffffffffffffffffffffffff1673ffffffffffffffffffffffffffffffffffffffff161415611d4357600082815481101515611c4757fe5b906000526020600020900160006101000a81549073ffffffffffffffffffffffffffffffffffffffff02191690558190505b600160008054905003811015611d2c57600060018201815481101515611c9b57fe5b906000526020600020900160009054906101000a900473ffffffffffffffffffffffffffffffffffffffff16600082815481101515611cd657fe5b906000526020600020900160006101000a81548173ffffffffffffffffffffffffffffffffffffffff021916908373ffffffffffffffffffffffffffffffffffffffff1602179055508080600101915050611c79565b6000805480919060019003611d419190612071565b505b8180600101925050611bbd565b6000805480602002602001604051908101604052809291908181526020018280548015611dd257602002820191906000526020600020905b8160009054906101000a900473ffffffffffffffffffffffffffffffffffffffff1673ffffffffffffffffffffffffffffffffffffffff1681526020019060010190808311611d88575b505050505092505050919050565b600080611e873360016000878152602001908152602001600020600601805480602002602001604051908101604052809291908181526020018280548015611e7d57602002820191906000526020600020905b8160009054906101000a900473ffffffffffffffffffffffffffffffffffffffff1673ffffffffffffffffffffffffffffffffffffffff1681526020019060010190808311611e33575b505050505061139f565b1515611e9257600080fd5b600180600086815260200190815260200160002060040160008282540392505081905550600060016000868152602001908152602001600020600701600085815260200190815260200160002060030160006101000a81548160ff021916908315150217905550600091505b600160008581526020019081526020016000206008018054905082101561205757826001600086815260200190815260200160002060080183815481101515611f4357fe5b906000526020600020900154141561204a576001600085815260200190815260200160002060080182815481101515611f7857fe5b9060005260206000209001600090558190505b6001806000868152602001908152602001600020600801805490500381101561201f576001600085815260200190815260200160002060080160018201815481101515611fd457fe5b906000526020600020900154600160008681526020019081526020016000206008018281548110151561200357fe5b9060005260206000209001819055508080600101915050611f8b565b6001600085815260200190815260200160002060080180548091906001900361204891906120f5565b505b8180600101925050611efe565b50505050565b602060405190810160405280600081525090565b815481835581811511612098578183600052602060002091820191016120979190612121565b5b505050565b8154818355818115116120c4578183600052602060002091820191016120c39190612121565b5b505050565b8154818355818115116120f0578183600052602060002091820191016120ef9190612121565b5b505050565b81548183558181151161211c5781836000526020600020918201910161211b9190612121565b5b505050565b61214391905b8082111561213f576000816000905550600101612127565b5090565b905600a165627a7a72305820ac5b36682c7765de55ded85bffc659e5b11de615dde3fa488f486d9a386a062c0029",
  "source": "pragma solidity ^0.4.4;\n///THIS IS NOT JUST ABOUT BUILDING A DATABASE OF COMPANIES AND HAVING THEM TO BE IMMUTABLE, HERE WE FOLLOW DEMOCRACY EVEN WHEN A EMPLOYER IS BEING FIRED\n//IT'S NECESSARY THAT WHEN A PERSON IS BEING FIRED HE SHOULD BE GIVEN A PROPER REASON AND IF HIS CO WORKERS THINK THAT ITS INJUSTICE TO HIM\n//THEY CAN VOTE AGAINST IT AND THIS IS A DIGITAL PROOF OF EXISTANCE OF PERSON AND THERE IS NO WAY A COMPANY CAN FIRE HIM WITHOUT VALID REASON\n// THIS IS JUST ONE USE CASE...WITH  THIS MECHANISM I CAN MAKE A DIFFERENT BLOCKCHAIN TO MAKE CV'S MORE TRUSTABLE BY JUST ADDING ONE MORE METHOD \n//WHENEVER A PERSON HAS DONE A INTERNSHIP IN THE COMPANY OR WORKED HERE, THE DIGITAL PROOF ALWAYS REMAINS AND THAT'S WHOLLY ENOUGH TO PROVE\n//THAT HE WORKED HERE.\ncontract Companies{\n    //the group of people who will decide to add your company to the blockchain...\n    //this will be decided on the basis of a voting system carried out using external\n    //app and then if there is majority the company is added. WHile adding the company\n    //All the validaters must agree.\n    //whereas while adding employees \n    address[] validaters;\n    \n    struct companies{\n        //Since I don't know what uniquely identifies each address I am assuming each company\n        //to have unique companyId, which can be changed later according to needs.\n        uint companyId;\n        bytes32 companyName;\n        //Any one founder will work...just for the clarrification of the main address to add company\n        bytes32 founder;\n        uint numberofemp;\n        uint numberofbranch;\n        bool isCompActive;\n        //those who decide which branch is going to get created and destroyed.\n        address[] branchManagers;\n        mapping(uint => Branches) branches;\n        uint[] branchidIndex;\n    }\n    //////////////////////////////////////////////////////////////\n//IT IS NOT NECESSARY THAT EVERY COMPANY HAS TO REGISTER HERE. EVERY BIG BUSINESS MAN CAN OWN ONE CONTRACT LIKE THIS SO THAT\n//hE CAN KEEP TRACK OF EVERYTHING WITHOUT GOING TO THE PLACE. AND THIS CONTRACT OF THAT BUSINESSMAN CAN BE CONNECTED TO LIST \n//OF ALL THE BUSINESSMANS ACCOUNT AND THUS FORMING A HUGE DEMOCRACY..HELPINNG GOVERNMENT, COMPANIES,EMPLOYEES AND FIGHTING\n//CORRUPTION. \n\n\n    //////////////////////////////////////////////////////////////\n    struct Branches{\n        uint branchId;\n        bytes32 branchName;\n        uint numemp;\n        bool isActive;\n        //those who recruit employees. They will have to vote in majority to employee someone.\n        address[] recruiters;\n        mapping(address => Employee) employees;\n        address[] empidindex;\n    }\n    struct Employee{\n        bytes32 employeeName;\n        uint employeeId;\n        uint empAge;\n        address empaddress;\n        bytes32 empPosition;\n        bool isWorking;\n    }\n    mapping(uint => companies) companyId;\n    uint[] compidindex;\n    function isAvailable(address sender,address[] validater) public returns (bool){\n        for(uint i=0;i<validater.length;i++){\n            if(validater[i]==sender){\n                return true;\n            }\n\n        }\n        return false;\n    }\n    /////////////////////////////////\n//THE NEXT METHOD CAN ONLY BE CALLED IF VALIDETRS IN THE ARRAY GIVE THE MAXIMUM VOTES\n//SINCE ETH TRANSACTIONS COULD BE COSTLY, SINCE WE NEED TO VOTE SEVERAL TIMES\n//I THOUGHT USING BYZANTINE FAULT TOLERANCE LIKE SYSTEM TO VOTE AND THEN CALL METHOD \n//BUT ONLY PROBLEM IS COST TO SET UP THOSE NODES.\n\n    ////////////////////////////////\n    function addCompany(uint id,bytes32 companyname,bytes32 Founder,uint empno){\n        //require(isAvailable(msg.sender,validaters));\n        companyId[id].companyId = id;\n        companyId[id].companyName = companyname;\n        companyId[id].founder = Founder;\n        companyId[id].numberofemp = empno;\n        compidindex.push(id);\n\n    }\n    //Returns ID's of all the companies in the contract.\n    \n    function change_empno(uint id,uint empno){\n        companyId[id].numberofemp = empno;\n    }\n    /////////////////////////////////\n//THE NEXT METHOD CAN ONLY BE CALLED IF MANAGERS IN THE ARRAY GIVE THE MAXIMUM VOTES\n//SINCE ETH TRANSACTIONS COULD BE COSTLY, SINCE WE NEED TO VOTE SEVERAL TIMES\n//I THOUGHT USING BYZANTINE FAULT TOLERANCE LIKE SYSTEM TO VOTE AND THEN CALL METHOD \n//BUT ONLY PROBLEM IS COST TO SET UP THOSE NODES.\n\n    ////////////////////////////////\n    function add_branch(uint compid,uint branch_id,bytes32 branchname,uint numemps){\n        require(isAvailable(msg.sender,companyId[compid].branchManagers));\n        companyId[compid].branches[branch_id].branchId = branch_id;\n        companyId[compid].branches[branch_id].branchName = branchname;\n        companyId[compid].branches[branch_id].numemp = numemps;\n        companyId[compid].numberofbranch+=1;\n        companyId[compid].branchidIndex.push(branch_id);\n    }\n    //Returns Branch ID's / Department ID's of a particular company\n   \n    /////////////////////////////////\n//THE NEXT METHOD CAN ONLY BE CALLED IF RECRUIETRS IN THE ARRAY GIVE THE MAXIMUM VOTES\n//SINCE ETH TRANSACTIONS COULD BE COSTLY, SINCE WE NEED TO VOTE SEVERAL TIMES\n//I THOUGHT USING BYZANTINE FAULT TOLERANCE LIKE SYSTEM TO VOTE AND THEN CALL METHOD \n//BUT ONLY PROBLEM IS COST TO SET UP THOSE NODES.\n\n    ////////////////////////////////\n    function add_employee(uint compid,uint branchid,bytes32 empname,address empaddress,bytes32 emppos,uint empage){\n        require(isAvailable(msg.sender,companyId[compid].branches[branchid].recruiters));\n        companyId[compid].branches[branchid].employees[empaddress].employeeName = empname;\n        companyId[compid].branches[branchid].employees[empaddress].empAge = empage;\n        companyId[compid].branches[branchid].employees[empaddress].empaddress = empaddress;\n        companyId[compid].branches[branchid].employees[empaddress].empPosition = emppos;\n        companyId[compid].numberofemp+=1;\n        companyId[compid].branches[branchid].numemp+=1;\n        companyId[compid].branches[branchid].empidindex.push(empaddress);\n\n\n    }\n    //Returns the names of all the employees currently working under that branch/Department\n    \n    //Returns address of all the employees in that branch/Department\n    function get_employee_add(uint compid,uint branchid) returns (address[]){\n        return companyId[compid].branches[branchid].empidindex;\n        \n    }\n    //Returns the postions of all the employees in that branch/Department\n   \n    /////////////////////////////////\n//THE NEXT METHOD CAN ONLY BE CALLED IF ALL THE PEOPLE IN THE ARRAY(INCLUDING EMPLOYEES,EMPLOYERS,RECRUITERS,MANAGERS) GIVE THE MAXIMUM VOTES\n//SINCE ETH TRANSACTIONS COULD BE COSTLY, SINCE WE NEED TO VOTE SEVERAL TIMES\n//I THOUGHT USING BYZANTINE FAULT TOLERANCE LIKE SYSTEM TO VOTE AND THEN CALL METHOD \n//BUT ONLY PROBLEM IS COST TO SET UP THOSE NODES.\n\n    ////////////////////////////////\n    function remove_employee(uint compid,uint branchid,address empid){\n        companyId[compid].branches[branchid].employees[empid].isWorking = false;\n        companyId[compid].numberofemp-=1;\n        companyId[compid].branches[branchid].numemp-=1;\n        for(uint i=0;i<companyId[compid].branches[branchid].empidindex.length;i++){\n            if(companyId[compid].branches[branchid].empidindex[i]==empid){\n                delete companyId[compid].branches[branchid].empidindex[i];\n                for(uint j=i;j<companyId[compid].branches[branchid].empidindex.length-1;j++){\n                    companyId[compid].branches[branchid].empidindex[j]=companyId[compid].branches[branchid].empidindex[j+1];\n                }\n                companyId[compid].branches[branchid].empidindex.length--;\n            }\n        }\n    }\n    /////////////////////////////////\n//THE NEXT METHOD CAN ONLY BE CALLED IF ALL THE PEOPLE IN THE ARRAY(INCLUDING EMPLOYEES,EMPLOYERS,RECRUITERS,MANAGERS) GIVE THE MAXIMUM VOTES\n//SINCE ETH TRANSACTIONS COULD BE COSTLY, SINCE WE NEED TO VOTE SEVERAL TIMES\n//I THOUGHT USING BYZANTINE FAULT TOLERANCE LIKE SYSTEM TO VOTE AND THEN CALL METHOD \n//BUT ONLY PROBLEM IS COST TO SET UP THOSE NODES.\n\n    ////////////////////////////////\n    function remove_branch(uint compid,uint branchid){\n        require(isAvailable(msg.sender,companyId[compid].branchManagers));\n        companyId[compid].numberofbranch-=1;\n        companyId[compid].branches[branchid].isActive = false;\n        for(uint i=0;i<companyId[compid].branchidIndex.length;i++){\n            if(companyId[compid].branchidIndex[i]==branchid){\n                delete companyId[compid].branchidIndex[i];\n                for(uint j=i;j<companyId[compid].branchidIndex.length-1;j++){\n                    companyId[compid].branchidIndex[j]=companyId[compid].branchidIndex[j+1];\n                }\n                companyId[compid].branchidIndex.length--;\n            }\n        }\n    }\n    function remove_company(uint compid){\n        require(isAvailable(msg.sender,validaters));\n        companyId[compid].isCompActive = false;\n        for(uint i=0;i<compidindex.length;i++){\n            if(compidindex[i]==compid){\n                delete compidindex[i];\n                for(uint j=i;j<compidindex.length-1;j++){\n                    compidindex[j]=compidindex[j+1];\n                }\n                compidindex.length--;\n            }\n        }\n    }\n    function get_active_companies() returns(uint){\n        return compidindex.length;\n    }\n    function get_active_b_managers(uint compid) returns(uint){\n        return companyId[compid].branchidIndex.length;\n    }\n    function get_active_employees(uint compid,uint branchid) returns(uint){\n        return companyId[compid].branches[branchid].empidindex.length;\n    }\n    //THis can be done only by attaining majority in voting\n    function add_validaters(address validater){\n        validaters.push(validater);\n\n    }\n    //Even this can only be achieved by majority voting\n    function remove_validater(address validater) returns(address[]){\n        for(uint i=0;i<validaters.length;i++){\n            if(validaters[i]==validater){\n                delete validaters[i];\n                for(uint j=i;j<validaters.length-1;j++){\n                    validaters[j]=validaters[j+1];\n                }\n                validaters.length--;\n\n            }\n        }\n        return validaters;\n    }\n    //Everything here can be achieved only by majority voting.\n    //THis mechanism leads to a democratic way of deciding what is happening in your company and what \n    //is happening in your branch , where you are working.\n    function add_b_manager(uint compid,address manager){\n        companyId[compid].branchManagers.push(manager);\n\n    }\n    //Even this can only be achieved by majority voting\n    function remove_manager(uint compid,address manager) returns(address[]){\n        for(uint i=0;i<companyId[compid].branchManagers.length;i++){\n            if(companyId[compid].branchManagers[i]==manager){\n                delete companyId[compid].branchManagers[i];\n                for(uint j=i;j<companyId[compid].branchManagers.length-1;j++){\n                    companyId[compid].branchManagers[j]=companyId[compid].branchManagers[j+1];\n                }\n                companyId[compid].branchManagers.length--;\n\n            }\n        }\n        return companyId[compid].branchManagers;\n    }\n    function add_recruiter(uint compid,uint branchid,address recruiter){\n        companyId[compid].branches[branchid].recruiters.push(recruiter);\n\n    }\n    //Even this can only be achieved by majority voting\n    function remove_recruiter(uint compid,uint branchid,address recruiter) returns(address[]){\n        for(uint i=0;i<companyId[compid].branches[branchid].recruiters.length;i++){\n            if(companyId[compid].branches[branchid].recruiters[i]==recruiter){\n                delete companyId[compid].branches[branchid].recruiters[i];\n                for(uint j=i;j<companyId[compid].branches[branchid].recruiters.length-1;j++){\n                    companyId[compid].branches[branchid].recruiters[j]=companyId[compid].branches[branchid].recruiters[j+1];\n                }\n                companyId[compid].branches[branchid].recruiters.length--;\n\n            }\n        }\n        return companyId[compid].branches[branchid].recruiters;\n    }\n    \n}",
  "sourcePath": "/root/Desktop/myproject/cv/contracts/Compaies.sol",
  "compiler": {
    "name": "solc",
    "version": "0.4.18+commit.9cf6e910.Emscripten.clang"
  },
  "schemaVersion": "1.0.1",
  "updatedAt": "2017-11-14T04:22:39.875Z"
}